:1000000071C00000BEC0000077C0000075C00000D5
:1000100073C0000071C000006FC000006DC0000020
:100020006BC0000069C0000067C0000065C0000030
:1000300063C0000061C000005FC000005DC0000040
:100040005BC0000059C0000057C0000055C0000050
:1000500053C0000051C000004FC000004DC0000060
:100060004BC0000049C0000047C0000045C0000070
:1000700043C0000041C000003FC000003DC0000080
:100080003BC0000039C0000037C0000035C0000090
:1000900033C0000031C000002FC000002DC00000A0
:1000A0002BC0000029C0000027C0000025C00000B0
:1000B00023C0000021C000001FC000001DC00000C0
:1000C0001BC0000019C0000017C0000015C00000D0
:1000D00013C0000011C000000FC000000DC00000E0
:1000E0000BC0000011241FBECFEFD1E2DEBFCDBF99
:1000F00000E00CBF58D05DC083CF8B3078F5811104
:1001000002C061B90895813011F464B90895823054
:1001100011F467B90895833011F46AB908958430F1
:1001200011F46DB90895853011F460BB08958630DF
:1001300011F463BB0895873019F4609301010895A9
:10014000883019F4609304010895893019F460939C
:10015000070108958A3011F460930A0108958FB75A
:100160008F778FBF8AB18E7F8AB98DB381608DBB47
:10017000E9E6F0E08081836080838FB780688FBF7D
:1001800008951F920F920FB60F9211248F939F9391
:1001900098B181E0892788B99F918F910F900FBE08
:1001A0000F901F9018957894DADF6FEF82E0A5DF4B
:0601B000FFCFF894FFCF21
:00000001FF
