:1000000071C0000086C0000084C0000082C00000F3
:1000100080C000007EC000007CC000007AC00000EC
:1000200078C0000076C0000074C0000072C00000FC
:1000300070C000006EC000006CC000006AC000000C
:1000400068C0000066C0000064C0000062C000001C
:1000500060C000005EC000005CC000005AC000002C
:1000600058C0000056C0000054C0000052C000003C
:1000700050C000004EC000004CC000004AC000004C
:1000800048C0000046C0000044C0000042C000005C
:1000900040C000003EC000003CC000003AC000006C
:1000A00038C0000036C0000034C0000032C000007C
:1000B00030C000002EC000002CC000002AC000008C
:1000C00028C0000026C0000024C0000022C000009C
:1000D00020C000001EC000001CC000001AC00000AC
:1000E00018C0000011241FBECFEFD1E2DEBFCDBF8C
:1000F00000E00CBF12E0A0E0B2E0E2E8F1E000E0D6
:100100000BBF02C007900D92A830B107D9F702D0FB
:1001100036C076CF04D080E092E01FD0FCCF81E0E3
:100120008093C50082E68093C400E2ECF0E0808119
:1001300088608083808186608083E1ECF0E080814C
:100140008061808380818860808308959091C00061
:1001500095FFFCCF8093C60008950F931F93CF9314
:100160008C01C0E002C0F2DFCF5FF801EC0FF11D9F
:1001700080818111F8CFCF911F910F910895F8944C
:02018000FFCFAF
:08018200616263646523000063
:00000001FF
