:100000000C942A000C94BD050C94E6050C940F0684
:100010000C9447000C9447000C94DE030C948C0362
:100020000C94B5030C9463030C9447000C944700A4
:100030000C9447000C9415020C9467020C943E0239
:100040000C9447000C9447000C9447000C94470014
:100050000C94470011241FBECFE5D8E0DEBFCDBF12
:1000600011E0A0E6B0E0EEEEFFE202C005900D92D6
:10007000AA33B107D9F711E0AAE3B1E001C01D929C
:10008000A137B107E1F70E949C140C94F5170C946A
:10009000000081E00E94BA080E94210C982F87314D
:1000A00028F488E091E00E947F1010C087518530CD
:1000B00028F488E091E00E946C1008C0892F8C51D0
:1000C000843048F488E091E00E949E1080E060E176
:1000D0000E945D0C0895903240F088E091E00E940B
:1000E0007F1080E060E10E94710C08951092500131
:1000F00081E0809351010E94C30008950E94A40AE8
:10010000882321F40E9409090E949001089581E04A
:10011000809350011092510108950F931F93DF9324
:10012000CF930F92CDB7DEB70E94020C0E9401144C
:1001300083E00E9446058AEB90E060E00E94A00503
:100140008E010F5F1F4FC8010E94EA138981813021
:1001500059F407C0C8010E94EA1380E060E40E94DD
:100160005D0C89818130B1F30F90CF91DF911F91A8
:100170000F91089580E060E40E94850C80E060E4C7
:100180000E94710C08950EC00E9449000E948501D2
:100190000E948D008FE091E00E94DD008AE391E0F3
:1001A0000E940F0280915001882321F480913A012E
:1001B000833551F710923A010895EF92FF920F9311
:1001C0001F93DF93CF9300D0CDB7DEB79A83898397
:1001D0007E010894E11CF11CC7010E94F30980E62E
:1001E00090E00E94790D29813A818DB79EB70A97D8
:1001F0000FB6F8949EBF0FBE8DBFEDB7FEB7319618
:100200000DE511E0ADB7BEB712961C930E93119792
:1002100084E690E093838283D90114968C9114979D
:100220008483158215968C9115978683178216966E
:100230008C91808711860E941D158DB79EB70A96F6
:100240000FB6F8949EBF0FBE8DBFC80160E040E0BE
:100250000E94EA0EC7010E94CD0929813A81ADB7FB
:10026000BEB71A970FB6F894BEBF0FBEADBFEDB7BD
:10027000FEB7319612961C930E93119785E790E086
:1002800093838283D9018C918483158211968C91FA
:1002900011978683178212968C91808711860E940F
:1002A0001D158DB79EB70A960FB6F8949EBF0FBE68
:1002B0008DBFC80161E040E00E94EA0E0F900F90F0
:1002C000CF91DF911F910F91FF90EF900895809152
:1002D000F300882321F481E080933B01089510927C
:1002E0003B010895DF93CF930F92CDB7DEB7CE01D8
:1002F00001960E94990C90E08981833308F091E087
:10030000892F0F90CF91DF9108950E947201813063
:1003100019F40E948709089581E00E948B090895CD
:1003200080E197E220E931E0F9013197F1F7019797
:10033000D9F70E946610813031F480E060E20E94BB
:10034000710C0E94760088EE93E020E931E0F9011B
:100350003197F1F70197D9F708959B01AC0194E02B
:10036000220F331F441F551F9A95D1F760E074E2A6
:1003700084EF90E00E94E014215030404040504013
:1003800080B58F7780BDBB27A52F942F832F80BD8D
:1003900029B988E18AB986E880BD80E008955D9B2F
:1003A000FECF8CB980E00895569A789480E0089545
:1003B000559A789480E0089520E004C05D9BFECFBC
:1003C000ECB92F5FFC01E20FF11DE081EE23B1F7E4
:1003D00080E008955F9BFECF8CB10895579A789482
:1003E00080E00895613061F0613018F06230A9F466
:1003F0000EC0009791F090933D0180933C010DC099
:10040000009759F090933F0180933E0106C00097FA
:1004100021F0909341018093400180E00895FC0118
:100420005F9B02C08CB1808308951F920F920FB61C
:100430000F9211242F933F934F935F936F937F936A
:100440008F939F93AF93BF93EF93FF93E0914001FE
:10045000F0914101309709F00995FF91EF91BF911B
:10046000AF919F918F917F916F915F914F913F914C
:100470002F910F900FBE0F901F9018951F920F9203
:100480000FB60F9211242F933F934F935F936F9367
:100490007F938F939F93AF93BF93EF93FF93E091DD
:1004A0003E01F0913F01309709F00995FF91EF91DE
:1004B000BF91AF919F918F917F916F915F914F917C
:1004C0003F912F910F900FBE0F901F9018951F9284
:1004D0000F920FB60F9211242F933F934F935F9378
:1004E0006F937F938F939F93AF93BF93EF93FF93FC
:1004F000E0913C01F0913D01309709F00995FF91A1
:10050000EF91BF91AF919F918F917F916F915F918B
:100510004F913F912F910F900FBE0F901F90189504
:100520008230E9F0833028F4882351F08130A9F536
:1005300010C0843031F18430A8F0853071F515C0D9
:100540008FB58E7F8FBD8FB58D7F8FBD8EB5877F29
:1005500014C08FB58E7F8FBD8FB58D7F17C08FB5BF
:100560008E7F05C08FB58E7F0EC08FB581608FBD29
:100570008FB58D7F8FBD8EB588608EBD8EB58F7E19
:100580000BC08FB581608FBD8FB582608FBD8EB57A
:1005900088608EBD8EB580618EBD8EB5887F8EBD24
:1005A0008EB5862B8EBD80E00895813051F081306C
:1005B00028F0823061F0833099F40CC08FB58F7BC6
:1005C00002C08FB580648FBD8FB58F7708C08FB59F
:1005D0008F7B02C08FB580648FBD8FB580688FBD63
:1005E00080E00895813051F0813028F0823061F050
:1005F000833099F40CC08FB58F7E02C08FB58061B7
:100600008FBD8FB58F7D08C08FB58F7E02C08FB52F
:1006100080618FBD8FB580628FBD80E00895882393
:1006200019F48EB5806404C0813019F48EB58F7BC7
:100630008EBD80E0089589B7806289BF089589B72B
:100640008F7D89BF089589B7846089BF089589B770
:100650008B7F89BF089589B7806189BF089589B765
:100660008F7E89BF089589B7886089BF089589B74B
:10067000877F89BF0895009711F482E008959093D1
:1006800049018093480180E00895009711F482E0C9
:100690000895909347018093460180E00895009764
:1006A00011F482E00895909345018093440180E025
:1006B0000895009711F482E0089590934301809388
:1006C000420180E008951F920F920FB60F921124FD
:1006D0002F933F934F935F936F937F938F939F934A
:1006E000AF93BF93EF93FF93E0914801F0914901DD
:1006F000309709F00995FF91EF91BF91AF919F91CC
:100700008F917F916F915F914F913F912F910F90BA
:100710000FBE0F901F9018951F920F920FB60F9259
:1007200011242F933F934F935F936F937F938F93F6
:100730009F93AF93BF93EF93FF93E0914601F091A6
:100740004701309709F00995FF91EF91BF91AF9163
:100750009F918F917F916F915F914F913F912F91D9
:100760000F900FBE0F901F9018951F920F920FB60B
:100770000F9211242F933F934F935F936F937F9327
:100780008F939F93AF93BF93EF93FF93E0914401B7
:10079000F0914501309709F00995FF91EF91BF91D4
:1007A000AF919F918F917F916F915F914F913F9109
:1007B0002F910F900FBE0F901F9018951F920F92C0
:1007C0000FB60F9211242F933F934F935F936F9324
:1007D0007F938F939F93AF93BF93EF93FF93E0919A
:1007E0004201F0914301309709F00995FF91EF9193
:1007F000BF91AF919F918F917F916F915F914F9139
:100800003F912F910F900FBE0F901F901895982F2A
:1008100012BE83B7806883BF913051F0913028F0C9
:10082000923079F0933081F409C083B781600BC0B6
:1008300083B7816083BF83B7826005C083B781605F
:1008400083BF83B7846083BF89B7816089BF80E03D
:100850000895982F12BE6CBF83B7806883BF83B79B
:10086000886083BF913051F0913028F0923079F058
:10087000933081F409C083B781600BC083B7816076
:1008800083BF83B7826005C083B7816083BF83B7AE
:10089000846083BF89B7826089BF80E00895982F04
:1008A00012BE6CBFBB9A83B7806483BF83B782607C
:1008B00083BF83B7806283BF913051F0913028F0BD
:1008C000923079F0933081F409C083B781600BC016
:1008D00083B7816083BF83B7826005C083B78160BF
:1008E00083BF83B7846083BF80E00895982F12BED2
:1008F0006CBFBB9A83B7806483BF83B7806283BFBA
:10090000913051F0913028F0923079F0933081F4A9
:1009100009C083B781600BC083B7816083BF83B791
:10092000826005C083B7816083BF83B7846083BF63
:1009300080E0089511B888E480B90895982F84EA7A
:1009400086BF06B607FEFDCF81B1887F883011F0E3
:1009500080E0089593B984E886BF06B607FEFDCF10
:1009600081B1887F883111F481E00895803211F0DF
:1009700083E0089582E00895982F84EA86BF06B642
:1009800007FEFDCF81B1887F803111F080E00895AE
:1009900093B984E886BF06B607FEFDCF81B1887F94
:1009A000803411F481E00895803211F083E00895DD
:1009B00082E0089584E986BF06B604FCFDCF089561
:1009C000982F44EA34E824E946BF06B607FEFDCF77
:1009D00081B1887F8830C1F793B936BF06B607FE6C
:1009E000FDCF81B1887F883129F026BF06B604FC8F
:1009F000FDCFEACF089583B984E886BF06B607FE27
:100A0000FDCF81B1887F883211F480E00895803372
:100A100011F082E0089581E0089584EC86BF06B667
:100A200007FEFDCF83B190E0089584E886BF06B647
:100A300007FEFDCF83B190E008958CE080B911B836
:100A400082E082B984E086BF089584EA86BF06B654
:100A500007FEFDCF089584E986BF089583B984E831
:100A600086BF06B607FEFDCF089584EC86BF06B6A6
:100A700007FEFDCF83B1089584E886BF06B607FE62
:100A8000FDCF83B1089581B1887F08957894813036
:100A900059F0813028F0823059F0833091F40CC045
:100AA00085B796B78C7F0BC085B796B7816007C0B6
:100AB00085B796B7826003C085B796B7836096BF47
:100AC00085BF8BB79CB780649CBF8BBF80E00895C7
:100AD0007894813059F0813028F0823059F0833099
:100AE00091F40CC085B796B7837F0BC085B796B7D6
:100AF000846007C085B796B7886003C085B796B78E
:100B00008C6096BF85BF8BB79CB780689CBF8BBF3E
:100B100080E008957894823019F0833051F404C055
:100B200084B795B78F7B03C084B795B7806495BFB2
:100B300084BF8BB79CB780629CBF8BBF80E0089559
:100B4000613061F0613018F06230A9F40EC0009796
:100B500091F090934F0180934E010DC0009759F092
:100B600090934D0180934C0106C0009721F0909323
:100B70004B0180934A0180E008951F920F920FB6B7
:100B80000F9211242F933F934F935F936F937F9313
:100B90008F939F93AF93BF93EF93FF93E0914E0199
:100BA000F0914F01309709F00995FF91EF91BF91B6
:100BB000AF919F918F917F916F915F914F913F91F5
:100BC0002F910F900FBE0F901F9018951F920F92AC
:100BD0000FB60F9211242F933F934F935F936F9310
:100BE0007F938F939F93AF93BF93EF93FF93E09186
:100BF0004C01F0914D01309709F00995FF91EF916B
:100C0000BF91AF919F918F917F916F915F914F9124
:100C10003F912F910F900FBE0F901F9018951F922C
:100C20000F920FB60F9211242F933F934F935F9320
:100C30006F937F938F939F93AF93BF93EF93FF93A4
:100C4000E0914A01F0914B01309709F00995FF912D
:100C5000EF91BF91AF919F918F917F916F915F9134
:100C60004F913F912F910F900FBE0F901F901895AD
:100C7000EF92FF921F93CF93DF93EC017B010E94D1
:100C800025050E944305883089F5CE01880F892FFC
:100C9000881F990B9195182F1E70812F806A0E94D2
:100CA0002E050E944305883109F58C2F0E942E05E0
:100CB0000E9443058832D1F40E9425050E94430515
:100CC0008031A1F4812F816A0E942E050E94430584
:100CD000803461F40E943C05F70180830E94430543
:100CE000883521F40E942B0581E001C080E0DF916E
:100CF000CF911F91FF90EF9008951F93CF93DF93B3
:100D0000EC01162F0E9425050E944305883009F545
:100D1000CE0180709770880F892F881F990B91954D
:100D2000806A0E942E050E944305883191F48C2F21
:100D30000E942E050E944305883259F4812F0E949B
:100D40002E050E944305883221F40E942B0581E084
:100D500001C080E0DF91CF911F910895FC01808157
:100D6000843010F081E008952181928192238130B6
:100D700069F0813028F0823079F0833091F413C02B
:100D80008AB320952823292B2ABB0BC087B3209533
:100D90002823292B27BB05C084B320952823292B82
:100DA00024BB80E0089581B320952823292B21BB03
:100DB00080E00895FC018081843010F081E0089586
:100DC000813051F0813028F0823049F0833049F48D
:100DD0000AC082818ABB05C0828187BB02C0828132
:100DE00084BB80E00895828181BB80E00895FC018E
:100DF0008081843010F081E00895218192819223D6
:100E0000813069F0813028F0823079F0833091F4BC
:100E100013C08AB320952823292B2ABB0BC087B384
:100E200020952823292B27BB05C084B32095282390
:100E3000292B24BB80E0089581B320952823292BFA
:100E400021BB80E00895FC01DB01E081E43010F07B
:100E500081E00895E13049F0E13028F0E23039F0E6
:100E6000E33039F408C089B303C086B301C083B34B
:100E70008C9380E0089580B38C9380E00895FC010A
:100E8000DB018081843010F081E00895813049F0E9
:100E9000813028F0823039F0833079F410C089B382
:100EA00003C086B301C083B390E0018002C0959572
:100EB00087950A94E2F781708C9380E0089580B35F
:100EC00090E0018002C0959587950A94E2F78170C1
:100ED0008C9380E00895FC01E081E43010F081E023
:100EE0000895E13049F0E13028F0E23039F0E330A4
:100EF00031F407C06BBB03C068BB01C065BB80E0B9
:100F0000089562BB80E00895FC018081843010F078
:100F100081E0089591816923813069F0813028F062
:100F2000823079F0833091F413C08BB3909598237D
:100F3000962B9BBB0BC088B390959823962B98BBA0
:100F400005C085B390959823962B95BB80E00895B6
:100F500082B390959823962B92BB80E00895FC0174
:100F6000E081E43010F081E0089520E030E070E0AE
:100F7000CB01022E02C0959587950A94E2F780FF77
:100F800002C0322F05C02F5F3F4F2830310581F757
:100F9000E13009F1E13030F0E230B1F1E33009F055
:100FA00058C04BC0413059F42BB381E090E002C0EF
:100FB000880F991F3A95E2F7282B2BBB4AC02BB319
:100FC00081E090E002C0880F991F3A95E2F7809582
:100FD00082238BBB3EC0413059F428B381E090E0BE
:100FE00002C0880F991F3A95E2F7282B28BB31C021
:100FF00028B381E090E002C0880F991F3A95E2F78C
:101000008095822388BB25C0413059F425B381E007
:1010100090E002C0880F991F3A95E2F7282B25BB74
:1010200018C025B381E090E002C0880F991F3A955F
:10103000E2F78095822385BB0CC0413061F422B376
:1010400081E090E002C0880F991F3A95E2F7282BC3
:1010500022BB80E0089522B381E090E002C0880FB7
:10106000991F3A95E2F78095822382BB80E008952C
:10107000FC01DA01E081E43010F081E0089520E025
:1010800030E070E0CB01022E02C0959587950A945E
:10109000E2F780FD05C02F5F3F4F2830310591F703
:1010A000E13049F0E13028F0E23039F0E33071F41A
:1010B0000FC089B303C086B301C083B390E002C000
:1010C000959587952A95E2F781708C9380E0089535
:1010D00080B390E002C0959587952A95E2F78170DC
:1010E0008C9380E00895FC01E081E43010F081E011
:1010F000089520E030E070E0CB01022E02C095950B
:1011000087950A94E2F780FF02C0322F05C02F5F57
:101110003F4F2830310581F7E13091F0E13028F080
:10112000E23081F0E330C1F419C02BB381E090E0EC
:1011300002C0880F991F3A95E2F728272BBB0CC0F5
:1011400028B301C025B381E090E002C0880F991F49
:101150003A95E2F7282728BB80E0089522B381E082
:1011600090E002C0880F991F3A95E2F7282728BB24
:1011700080E0089597B1907E97B997B1982B97B971
:10118000369A3699FECF24B135B1C9010895DF935F
:10119000CF9300D00F92CDB7DEB7DE011196E6E116
:1011A000F1E083E001900D928150E1F7CE010196CC
:1011B0000E94AE0617B83F983E9A86B1887F86B9DE
:1011C0008091F40087708093F40096B1892B86B9E2
:1011D000379A3D9881E00F900F900F90CF91DF915B
:1011E0000895DF93CF9300D00F92CDB7DEB782E0A2
:1011F000898380E88A838FEF8B83CE01019660E03C
:101200000E94840780E00F900F900F90CF91DF91A4
:101210000895DF93CF9300D00F92CDB7DEB782E071
:10122000898380E88A838FEF8B83CE0101966FEFED
:101230000E94840780E00F900F900F90CF91DF9174
:101240000895DF93CF9300D00F92CDB7DEB782E041
:10125000898380E88A838FEF8B83CE0101960E9479
:10126000AE0680E00F900F900F90CF91DF91089520
:10127000CF93DF93EB01813041F482E00E94D502ED
:10128000C056DF4FDBBDCABD0BC0882311F081E023
:1012900007C082E00E94F202CF5BDF4FD9BDC8BD1C
:1012A000DF91CF9108951F93162F8130A9F482E02A
:1012B0000E94D502282F123039F0133041F011303E
:1012C00019F581E490E005C08FEA90E002C08CE25D
:1012D00091E09BBD8ABD18C0882311F021E014C0A5
:1012E00082E00E94F202282F123039F0133041F0D0
:1012F000113051F481E490E005C08FEA90E002C023
:101300008CE291E099BD88BD822F1F91089563E022
:101310000E945309089561E00E94530908951F93A4
:10132000DF93CF9300D00F92CDB7DEB7182F83E0B5
:1013300063E00E9490021DBC1CBC83EC99E097BD49
:1013400086BD113081F4DE011196ECE1F1E083E01D
:1013500001900D928150E1F7CE0101960E94AE06F8
:101360001BBC1ABC13C0112311F081E00FC0DE01B9
:101370001196E9E1F1E083E001900D928150E1F7EF
:10138000CE0101960E94AE0619BC18BC0F900F90BA
:101390000F90CF91DF911F910895CF93DF93EC01D0
:1013A00088818032E0F489818D30C8F480ED0E941C
:1013B0009E0483E00E94FB0481ED0E94BC040E9415
:1013C0000D058B830E940D0588830E940D0589837E
:1013D0000E9415058A830E94DA0480E001C082E041
:1013E000DF91CF9108950F931F938C0180ED0E94A0
:1013F0009E0480E00E94FB0481ED0E94BC040E94D8
:101400000D05F80186830E940D05F80185830E9471
:101410001505F80184830E94DA0480E01F910F9182
:1014200008950F931F938C0180ED0E949E0480E02D
:101430000E94FB04F8014681842F6AE00E94C014D8
:10144000282F30E0F4E0220F331FFA95E1F7842FC4
:101450000E94C014892F822B0E94FB04F801458151
:10146000842F6AE00E94C014282F30E0E4E0220FAD
:10147000331FEA95E1F7842F0E94C014892F822B35
:101480000E94FB04F8014481842F6AE00E94C0148A
:10149000282F30E074E0220F331F7A95E1F7842F74
:1014A0000E94C014892F822B0E94FB040E94DA0440
:1014B00080ED0E949E0483E00E94FB04F80183817A
:1014C0000E94FB04F8014081842F6AE00E94C0144E
:1014D000282F30E054E0220F331F5A95E1F7842F74
:1014E0000E94C014892F822B0E94FB04F8014181C5
:1014F000842F6AE00E94C014282F30E094E0220F6D
:10150000331F9A95E1F7842F0E94C014892F822BF4
:101510000E94FB04F8014281842F6AE00E94C014FB
:10152000282F30E084E0220F331F8A95E1F7842FC3
:101530000E94C014892F822B0E94FB040E94DA04AF
:1015400080E01F910F9108950F931F93CF93DF9326
:101550000E94F70E84EF91E020E931E0F901319724
:10156000F1F70197D9F784E890E061E041E00E944B
:10157000EA0E84EF91E020E931E0F9013197F1F7CB
:101580000197D9F7C2E5D1E000E911E00E94EA0134
:101590008093560188838AE20E94C00C88EE93E013
:1015A000F8013197F1F70197D9F7219681E0C63517
:1015B000D80761F781E193E06BE571E00E9438069E
:1015C00081E193E065E571E00E94380681E193E0F6
:1015D0006AE571E00E94380681E193E063E571E01D
:1015E0000E94380690915B0180915201981799F4FE
:1015F0002091550180915301281769F490915A0167
:1016000080915401981739F480915301821719F48D
:1016100081E08093580180915801DF91CF911F9113
:101620000F9108950F931F93CF93DF9310925C0156
:101630000E94F70E84EF91E020E931E0F901319743
:10164000F1F70197D9F784E890E061E041E00E946A
:10165000EA0E80E593EC20E931E0F9013197F1F7EA
:101660000197D9F7C1E0D0E063E370E080E090E05B
:101670000E948F0D0E94EA0180935601FE01EF5AED
:10168000FE4F808382E06C2F0E94C30E8AE20E948C
:10169000C00C2196C530D10539F784EF91E020E9DF
:1016A00031E0F9013197F1F70197D9F70E94F70E70
:1016B00082E990E061E041E00E94EA0E80E593EC6F
:1016C00020E931E0F9013197F1F70197D9F7C1E04D
:1016D000D0E000E911E00E94EA018093560128EE73
:1016E00033E0F8013197F1F721503040D1F7FE0196
:1016F000E85AFE4F808382E06C2F0E94C30E8AE27C
:101700000E94C00C84EF91E0F8013197F1F7019746
:10171000D9F72196C530D105F1F688E893E120E9A3
:1017200031E0F9013197F1F70197D9F740915C0168
:1017300020E030E0F901EE5AFE4FD901A75ABE4F22
:1017400090818C91981341E02F5F3F4F24303105F9
:1017500089F740935C014130B9F560915201609383
:101760005B018091530180935501809154018093D6
:101770005A01809155018093530181E193E00E94C9
:101780007D0681E293E0609155010E947D0681E330
:1017900093E060915A010E947D0681E493E060919C
:1017A00053010E947D060E94F70E85EA90E061E0F9
:1017B00041E00E94EA0E88E893E120E931E0F90176
:1017C0003197F1F70197D9F780915C01DF91CF91C3
:1017D0001F910F910895DF93CF9300D00F92CDB753
:1017E000DEB7AC0183E0898384E08A83CE01019671
:1017F00064E00E94380880E00F900F900F90CF9126
:10180000DF9108950F931F93DF93CF9300D00F9232
:10181000CDB7DEB783E0898384E08A831B828E01A3
:101820000F5F1F4FC8010E94AE06C8010E94F70655
:1018300080E00F900F900F90CF91DF911F910F914B
:10184000089524EF31E0AC01429FC001439F900D09
:10185000529F900D11246FEF73E00E94CC14862FDD
:101860000895DF93CF9300D00F92CDB7DEB7898371
:101870006A831B82CE0101966FEF0E94840788E87D
:1018800093E120E931E0F9013197F1F70197D9F7B8
:10189000CE01019660E00E94840728E833E140E928
:1018A00051E0FA013197F1F721503040D1F70F9014
:1018B0000F900F90CF91DF910895DF93CF9300D0D9
:1018C0000F92CDB7DEB789836A831B82CE01019662
:1018D00060E00E9484070F900F900F90CF91DF91EE
:1018E0000895DF93CF9300D00F92CDB7DEB78983F1
:1018F0006A831B82CE0101966FEF0E9484070F90CE
:101900000F900F90CF91DF910895DF93CF9300D088
:101910000F92CDB7DEB789836A838FEF8B83CE01B9
:1019200001960E94AE060F900F900F90CF91DF911D
:1019300008950F931F938C0180E00E94BA0820E065
:1019400034E0281B390B442737FD4095542FCA013A
:10195000B90124E630E040E050E00E94A11420E00C
:1019600034E040E050E00E940215F801208380E05E
:101970001F910F91089585EF90E00E94F70608955A
:10198000AF92BF92CF92DF92EF92FF920F93DF93CD
:10199000CF93CDB7DEB729970FB6F894DEBF0FBE51
:1019A000CDBF082FDE011196E5E2F1E083E0019062
:1019B0000D928150E1F7CE0101966FEF0E948407EE
:1019C000DE011496E2E2F1E083E001900D92815095
:1019D000E1F780EA9FE00197F1F7DE011796EFE16A
:1019E000F1E083E001900D928150E1F727E0A22E13
:1019F000B12CAC0EBD1E402F45954595459545959E
:101A00004170C50161E00E94AF07402F45954595A3
:101A10004595459545954170C50162E00E94AF0727
:101A2000402F46FB440F440B40F94170C50164E070
:101A30000E94AF07402F441F4427441FC50160E1A7
:101A40000E94AF0790EAE92E9FE0F92EC7010197A7
:101A5000F1F784E0C82ED12CCC0EDD1EC6016FEF4D
:101A60000E948407C7010197F1F7C60160E00E9458
:101A70008407C7010197F1F7402F4170C50161E06C
:101A80000E94AF07402F45954170C50162E00E945A
:101A9000AF0705950595402F4170C50164E00E9490
:101AA000AF0705950170C50160E1402F0E94AF07A7
:101AB000C7010197F1F7C6016FEF0E948407C701C4
:101AC0000197F1F7C60160E00E948407F7013197A2
:101AD000F1F729960FB6F894DEBF0FBECDBFCF91B8
:101AE000DF910F91FF90EF90DF90CF90BF90AF907C
:101AF00008951F93CF93DF93EC0191E010E004C0B1
:101B00000E94C00C982F1F5FFE01E10FF11D808124
:101B10008823B1F7892FDF91CF911F9108958F927C
:101B20009F92AF92BF92CF92DF92EF92FF920F936C
:101B30001F93DF93CF93CDB7DEB761970FB6F894BD
:101B4000DEBF0FBECDBF6B017C0161157105810544
:101B5000910511F411E015C010E01F5F2AE030E09C
:101B600040E050E00E94E014C901DA01BC01CD015F
:101B7000611571058105910581F71F3010F081E035
:101B800032C000E0A12EBB244E010894811C911CA0
:101B900021C0C701B6012AE030E040E050E00E94D9
:101BA000E014698BC701B6012AE030E040E050E064
:101BB0000E94E014C901DA016C017D01E02FF0E020
:101BC000E095F095E80DF91DEA0DFB1D8989805D12
:101BD00080830F5F0117E8F2A80CB91CF501108291
:101BE000C4010E94790D61960FB6F894DEBF0FBE56
:101BF000CDBFCF91DF911F910F91FF90EF90DF90BC
:101C0000CF90BF90AF909F908F900895AF92BF926A
:101C1000CF92DF92EF92FF920F93DF93CF93CDB7E6
:101C2000DEB729970FB6F894DEBF0FBECDBF082FE1
:101C3000DE011196EEE2F1E083E001900D92815019
:101C4000E1F7CE01019660E00E94840780EA9FE000
:101C50000197F1F7DE011496EBE2F1E083E00190E9
:101C60000D928150E1F780EA9FE00197F1F7DE01E4
:101C70001796E8E2F1E083E001900D928150E1F7E0
:101C800057E0A52EB12CAC0EBD1E402F45954595B5
:101C9000459545954170C50161E00E94AF07402F11
:101CA000459545954595459545954170C50162E039
:101CB0000E94AF07402F46FB440F440B40F9417090
:101CC000C50164E00E94AF07402F441F4427441F12
:101CD000C50160E10E94AF0740EAE42E4FE0F42E18
:101CE000C7010197F1F734E0C32ED12CCC0EDD1ED5
:101CF000C6016FEF0E948407C7010197F1F7C60183
:101D000060E00E948407C7010197F1F7402F4170FE
:101D1000C50161E00E94AF07402F45954170C501A4
:101D200062E00E94AF0705950595402F4170C501FF
:101D300064E00E94AF0705950170C50160E1402F86
:101D40000E94AF07C7010197F1F7C6016FEF0E942C
:101D50008407C7010197F1F7C60160E00E9484077C
:101D6000F7013197F1F729960FB6F894DEBF0FBE51
:101D7000CDBFCF91DF910F91FF90EF90DF90CF908B
:101D8000BF90AF900895813041F0813058F082309B
:101D900031F0833031F060E005C0605C03C06C5E00
:101DA00001C06C5A862F80680E94060E0895EF923B
:101DB000FF920F931F937B018C01842F622F0E944F
:101DC000C30EC801B7010E948F0D1F910F91FF90A4
:101DD000EF9008950F931F938C01862F642F0E941C
:101DE000C30EC8010E94790D1F910F91089581E0E3
:101DF0000E94060E80E49CE90197F1F786E00E94BC
:101E0000060E08951F93DF93CF93CDB7DEB72997C2
:101E10000FB6F894DEBF0FBECDBFDE011196E7E32B
:101E2000F1E083E001900D928150E1F7CE0101963F
:101E30000E94AE06DE011496E4E3F1E083E0019037
:101E40000D928150E1F7CE0104960E94AE06DE01AC
:101E50001796E1E3F1E083E001900D928150E1F704
:101E6000CE0107960E94AE06182F8EE591E020E97C
:101E700031E0F9013197F1F70197D9F782E00E943B
:101E8000060E88E20E94060E80E991E020E931E02A
:101E9000F9013197F1F70197D9F78EE00E94060E0C
:101EA00080E991E020E931E0F9013197F1F70197FC
:101EB000D9F781E00E94060E80E49FE10197F1F7D7
:101EC00086E00E94060E812F29960FB6F894DEBF99
:101ED0000FBECDBFCF91DF911F9108952F923F92FA
:101EE0005F926F927F928F929F92AF92BF92CF92AA
:101EF000DF92EF92FF920F931F93DF93CF93CDB7B3
:101F0000DEB769970FB6F894DEBF0FBECDBF2FEFD7
:101F1000298392E09A8340E24B832C839D8380E166
:101F20008E832F83988738E039872A879B8784E0C0
:101F30008C872D8793E09E8780E88F87188A998BFE
:101F400080E48A8B1B8A9C8B4D8B1E8A9F8B388FDB
:101F5000198E32E0E32EF12CEC0EFD1EBB242EE098
:101F6000222E312C2C0E3D1E3E010894611C711C4A
:101F7000AE2C9F2CC70160E00E9484078101CC2415
:101F8000DD24502E812EC801F8016181A3010E9439
:101F900038088981882371F588EC90E020E931E0E8
:101FA000F9013197F1F70197D9F708C0852D982DE0
:101FB000F8016081A7010E9438080DC08601000F5A
:101FC000111F0C0D1D1D7E010894E11CF11C0E0D4E
:101FD0001F1D025F1F4F8981882341F3EB2DF0E025
:101FE000EE0FFF1FEE0FFF1FEC0DFD1DE850FF4F22
:101FF000808118C00894C11CD11C0D5F1F4FF4E0F4
:10200000CF16D10409F0BDCF8A2D992D6FEF0E9414
:102010008407B39483E090E0E80EF91E94E0B916CB
:1020200009F0A6CF69960FB6F894DEBF0FBECDBFFC
:10203000CF91DF911F910F91FF90EF90DF90CF90A4
:10204000BF90AF909F908F907F906F905F903F90E8
:102050002F900895EF92FF920F931F93DF93CF93EA
:1020600000D000D000D0CDB7DEB782E089838CE30A
:102070008A838FEF8B837E010894E11CF11CC701DA
:102080000E94AE0683E08C8388EE8D831E828E01D3
:102090000C5F1F4FC8010E94AE06C8016FEF0E947F
:1020A0008407C7016FEF0E94840780E026960FB671
:1020B000F894DEBF0FBECDBFCF91DF911F910F917E
:1020C000FF90EF900895AA98AA9A089583B38695F1
:1020D000869580958170089583B7886083BF83B7A4
:1020E000806483BF83B7806183BF83B7806283BF0F
:1020F00083B7816083BF80E88CBF80E00895FC01D6
:1021000083B78F7E83BF83B78F7D83BF80816381D9
:1021100040E00E94F31180E00895FC018681813047
:1021200021F48181648141E005C0882329F4818103
:10213000648140E00E94F31180E008950F931F93A3
:102140008C010E948D10F8018081638141E00E9422
:10215000F31180E01F910F9108950F931F938C014D
:10216000FC018081638141E00E944011F80181817E
:10217000648141E00E944011F8018281658141E063
:102180000E944011F8018281658141E00E94F311B3
:1021900080E01F910F9108956623D9F1613009F015
:1021A0006EC0843469F1853440F48234D9F08334CC
:1021B00000F5813409F063C00EC0823699F0833691
:1021C00020F4813609F05BC006C0833691F0843676
:1021D00009F055C015C08BB38F708BBB8BB3429584
:1021E000407F33C088B38F7088BB88B34295407FEF
:1021F00034C085B38F7085BB85B34295407F35C0B1
:1022000082B38F7082BB82B34295407F842B82BBA6
:102210000895843469F1853438F48234C9F0833404
:10222000F8F4813461F50CC0823691F0833618F4ED
:10223000813629F505C0833699F0843601F518C03A
:102240008BB3807F8BBB8BB34F70842B8BBB08957C
:1022500088B3807F88BB88B34F70842B88BB089578
:1022600085B3807F85BB85B34F70842B85BB089574
:1022700082B3807F82BB82B34F70842B82BB089570
:10228000843409F464C0853448F4823471F18334B1
:1022900008F044C0813409F072C00EC0823629F1C2
:1022A000833620F4813609F06AC006C08336B1F166
:1022B000843609F064C04BC0442361F42AB381E042
:1022C00090E002C0880F991F6A95E2F780958223FB
:1022D0008ABB08952AB381E090E002C0880F991F5D
:1022E0006A95E2F7282B2ABB0895442361F427B3AB
:1022F00081E090E002C0880F991F6A95E2F780950F
:10230000822387BB089527B381E090E002C0880F45
:10231000991F6A95E2F7282B27BB0895442361F49F
:1023200024B381E090E002C0880F991F6A95E2F71C
:102330008095822384BB089524B381E090E002C09D
:10234000880F991F6A95E2F7282B24BB0895442330
:1023500061F421B381E090E002C0880F991F6A9573
:10236000E2F78095822381BB089521B381E090E05C
:1023700002C0880F991F6A95E2F7282B21BB0895A8
:10238000843451F1853438F48234C1F08334E8F474
:10239000813441F50CC0823689F0833618F48136D9
:1023A00009F505C0833689F08436E1F415C066234B
:1023B00011F41ABA08958FEF8ABB0895662311F4B9
:1023C00017BA08958FEF87BB0895662311F414BAE6
:1023D00008958FEF84BB0895662311F411BA089510
:1023E0008FEF81BB0895843409F464C0853448F4C8
:1023F000823471F1833408F044C0813409F072C032
:102400000EC0823629F1833620F4813609F06AC085
:1024100006C08336B1F1843609F064C04BC0442352
:1024200061F42BB381E090E002C0880F991F6A9598
:10243000E2F7809582238BBB08952BB381E090E077
:1024400002C0880F991F6A95E2F7282B2BBB0895CD
:10245000442361F428B381E090E002C0880F991F03
:102460006A95E2F78095822388BB089528B381E0BE
:1024700090E002C0880F991F6A95E2F7282B28BBCD
:102480000895442361F425B381E090E002C0880FF1
:10249000991F6A95E2F78095822385BB089525B33D
:1024A00081E090E002C0880F991F6A95E2F7282B1F
:1024B00025BB0895442361F422B381E090E002C07B
:1024C000880F991F6A95E2F78095822382BB089551
:1024D00022B381E090E002C0880F991F6A95E2F76D
:1024E000282B22BB08958434D9F0853438F4823403
:1024F00099F0833498F48134A1F40CC0823661F0F1
:10250000833618F4813669F405C0833639F0843691
:1025100041F406C06BBB089568BB089565BB089580
:1025200062BB0895843459F1853438F4823499F0CB
:10253000833498F48134A1F50CC0823661F083367F
:1025400018F4813669F505C0833639F0843641F5D3
:1025500016C029B303C026B301C023B381E090E0C5
:10256000062E02C0880F991F0A94E2F730E08223FA
:10257000932302C0959587956A95E2F7089520B355
:1025800081E090E0062E02C0880F991F0A94E2F7BE
:1025900030E08223932302C0959587956A95E2F7F0
:1025A00008958434D9F0853438F4823499F0833432
:1025B00098F48134A1F40CC0823661F0833618F4AB
:1025C000813669F405C0833639F0843641F406C09B
:1025D00089B3089586B3089583B3089580B30895A9
:1025E000982F442309F45BC080B78B7F80BF94345D
:1025F00009F445C0953440F4923419F1933480F5D0
:10260000913409F093C00EC09236D9F0933620F47D
:10261000913609F08BC006C0933611F1943609F05B
:1026200085C02DC03AB381E090E002C0880F991FA9
:102630006A95E2F7282F209523232ABB2BB3822B00
:1026400050C037B381E090E002C0880F991F6A95AF
:10265000E2F7282F2095232327BB28B3822B4DC0D8
:1026600034B381E090E002C0880F991F6A95E2F7C9
:10267000282F2095232324BB25B3822B4AC031B3B6
:1026800081E090E002C0880F991F6A95E2F7282F39
:102690002095232321BB22B3822B82BB089584344F
:1026A000D1F1853440F48234F1F0833440F5813443
:1026B00009F03CC00CC08236B1F0833618F4813684
:1026C000A9F505C08336D9F0843681F524C02BB333
:1026D00081E090E002C0880F991F6A95E2F780952B
:1026E00082238BBB089528B381E090E002C0880F5D
:1026F000991F6A95E2F78095822388BB089525B3D8
:1027000081E090E002C0880F991F6A95E2F78095FA
:10271000822385BB089522B381E090E002C0880F38
:10272000991F6A95E2F78095822382BB0895DF9313
:10273000CF9300D00F92CDB7DEB789836A831B8217
:10274000CE01019660E00E9484070F900F900F90D9
:10275000CF91DF910895DF93CF9300D00F92CDB743
:10276000DEB789836A831B82CE0101966FEF0E94D8
:1027700084070F900F900F90CF91DF910895DF9312
:10278000CF9300D00F92CDB7DEB789836A838FEFE6
:102790008B83CE0101960E94AE060F900F900F9092
:1027A000CF91DF910895DF93CF9300D00F92CDB7F3
:1027B000DEB783E0898380E88A83CE01019660E8F2
:1027C0004FEF0E94AF0780E00F900F900F90CF91D6
:1027D000DF910895DF93CF9300D00F92CDB7DEB78E
:1027E000AC0183E0898380E88A83CE01019660E8AA
:1027F0000E94380880E00F900F900F90CF91DF91EA
:102800000895DF93CF9300D00F92CDB7DEB783E06A
:10281000898380E88A831B82CE0101960E94AE06DE
:1028200080E00F900F900F90CF91DF9108958AEA8A
:1028300090E060E041E00E94EA0E82EB90E061E00F
:1028400041E00E94EA0E80EC90E062E041E00E94EC
:10285000EA0E83ED90E063E041E00E94EA0E0E9400
:10286000EA018C3489F08D3418F4833429F51CC0C6
:102870008E3491F08F3401F50E94F70E8FE40E94A0
:10288000C00C0E947E0008950E94F70E8CE40E9406
:10289000C00C0E94870008950E94F70E8EE40E94EB
:1028A000C00C0E94760008950E94F70E83E40E94F7
:1028B000C00C0E94120B08950E94F70E87EE90E064
:1028C0000E94790D08950E941D050E94C7080E946C
:1028D000020F88E091E00E94AD100E94631085B362
:1028E00066E00E94BF130E949A048FE091E00E946C
:1028F000110A0E9421090E94BB0C60E875E280E089
:1029000090E00E94AD0180E00E948F0981E00E946A
:102910008F098C9A8D9A80E060E10E94850C80E09E
:1029200060E10E945D0C80E060E20E94850C80E026
:1029300060E20E945D0C08950E9463140E941714C7
:10294000FDCF629FD001739FF001829FE00DF11DCA
:10295000649FE00DF11D929FF00D839FF00D749F19
:10296000F00D659FF00D9927729FB00DE11DF91FC5
:10297000639FB00DE11DF91FBD01CF011124089522
:10298000991B79E004C0991F961708F0961B881FC1
:102990007A95C9F780950895AA1BBB1B51E107C022
:1029A000AA1FBB1FA617B70710F0A61BB70B881FDF
:1029B000991F5A95A9F780959095BC01CD0108956E
:1029C000A1E21A2EAA1BBB1BFD010DC0AA1FBB1F33
:1029D000EE1FFF1FA217B307E407F50720F0A21BA5
:1029E000B30BE40BF50B661F771F881F991F1A9412
:1029F00069F760957095809590959B01AC01BD013C
:102A0000CF01089597FB092E05260ED057FD04D05F
:102A1000D7DF0AD0001C38F45095409530952195A9
:102A20003F4F4F4F5F4F0895F6F790958095709503
:102A300061957F4F8F4F9F4F0895AEE0B0E0E3E286
:102A4000F5E10C94CC170D891E8986E08C831A83DE
:102A500009838FEF9FE79E838D839E01275E3F4F03
:102A6000CE0101966F89788DA9010E9441152F81B1
:102A70003885020F131FF80110822E96E4E00C94A3
:102A8000E817ABE0B0E0E7E4F5E10C94BE173C01D9
:102A90002B015A01FC0117821682838181FD03C03C
:102AA0006FEF7FEFC6C19AE0892E1E010894211CAA
:102AB000311CF3012381F20123FD859123FF8191D4
:102AC0002F01882309F4B2C1853239F423FD8591A1
:102AD00023FF81912F01853229F490E0B3010E94F8
:102AE0003417E7CF982FFF24EE249924FFE1FF1538
:102AF000D0F09B3269F09C3228F4903259F0933236
:102B000091F40EC09D3249F0903369F441E024C045
:102B100052E0F52A84E0F82A28C098E0F92A25C076
:102B2000E0E1FE2A22C0F7FC29C0892F80538A30B9
:102B300070F4F6FE05C0989C902C1124980E15C0D8
:102B4000E89CE02C1124E80EF0E2FF2A0EC09E3231
:102B500029F4F6FC6BC140E4F42A07C09C3619F452
:102B600050E8F52A02C0983649F4F20123FD959108
:102B700023FF91912F01992309F0B8CF892F855414
:102B8000833018F08052833038F444E050E0A40ED3
:102B9000B51E5FE359830FC0933631F0933779F058
:102BA000933509F056C020C0F5018081898342E049
:102BB00050E0A40EB51E610101E010E012C0F50165
:102BC000C080D180F6FC03C06FEF7FEF02C0692D9B
:102BD00070E042E050E0A40EB51EC6010E94291725
:102BE0008C015FE7F52214C0F501C080D180F6FCAE
:102BF00003C06FEF7FEF02C0692D70E042E050E04C
:102C0000A40EB51EC6010E941E178C0150E8F52ABD
:102C1000F3FE07C01AC080E290E0B3010E943417AF
:102C2000EA948E2D90E008171907A8F30EC0F6015C
:102C3000F7FC8591F7FE81916F0190E0B3010E944E
:102C40003417E110EA94015010400115110579F78D
:102C5000EAC0943611F0993669F5F7FE08C0F5011F
:102C6000208131814281538184E090E00AC0F501E6
:102C7000808191819C01442737FD4095542F82E04B
:102C800090E0A80EB91E9FE6F92257FF09C05095A3
:102C90004095309521953F4F4F4F5F4FE0E8FE2A1A
:102CA000CA01B901A1012AE030E00E946017D82EC4
:102CB000D21840C0953729F41F2D1F7E2AE030E03E
:102CC0001DC01F2D197F9F3661F0903720F4983575
:102CD00009F0ACC00FC0903739F0983709F0A6C0A2
:102CE00004C028E030E00AC0106114FD146020E147
:102CF00030E004C014FD166020E132E017FF08C088
:102D0000F501608171818281938144E050E008C0C7
:102D1000F50180819181BC0180E090E042E050E0CB
:102D2000A40EB51EA1010E946017D82ED2188FE7FD
:102D3000F82EF122F6FE0BC05EEFF522D91438F41E
:102D4000F4FE07C0F2FC05C08FEEF82202C01D2D74
:102D500001C0192DF4FE0DC0FE01ED0DF11D8081A5
:102D6000803319F499EEF92208C01F5FF2FE05C006
:102D700003C08F2D867809F01F5F0F2DF3FC14C060
:102D8000F0FE0FC01E1510F09D2C0BC09D2C9E0C4C
:102D9000911A1E2D06C080E290E0B3010E94341704
:102DA0001F5F1E15C0F304C01E1510F4E11A01C008
:102DB000EE2404FF0FC080E390E0B3010E943417BB
:102DC00002FF1DC001FD03C088E790E00EC088E54A
:102DD00090E00BC0802F867891F001FF02C08BE25B
:102DE00001C080E2F7FC8DE290E0B3010E9434174D
:102DF00006C080E390E0B3010E9434179A94D9147E
:102E0000C0F3DA94F101ED0DF11D808190E0B30182
:102E10000E943417DD20A9F706C080E290E0B301DC
:102E20000E943417EA94EE20C1F743CEF301668185
:102E30007781CB012B96E2E10C94DA17FC01059027
:102E4000615070400110D8F7809590958E0F9F1FAC
:102E50000895FC016150704001900110D8F78095F1
:102E600090958E0F9F1F08950F931F93CF93DF931D
:102E70008C01EB018B8181FF1BC082FF0DC02E8175
:102E80003F818C819D812817390764F4E881F9819D
:102E90000193F983E88306C0E885F985802F0995B9
:102EA000892B31F48E819F8101969F838E8302C08E
:102EB0000FEF1FEFC801DF91CF911F910F91089580
:102EC000FA01AA27283051F1203181F1E8946F935B
:102ED0006E7F6E5F7F4F8F4F9F4FAF4FB1E03ED001
:102EE000B4E03CD0670F781F891F9A1FA11D680F9F
:102EF000791F8A1F911DA11D6A0F711D811D911DD2
:102F0000A11D20D009F468943F912AE0269F112446
:102F10003019305D3193DEF6CF010895462F4770AA
:102F2000405D4193B3E00FD0C9F7F6CF462F4F7005
:102F3000405D4A3318F0495D31FD4052419302D063
:102F4000A9F7EACFB4E0A695979587957795679509
:102F5000BA95C9F700976105710508959B01AC0109
:102F60000A2E06945795479537952795BA95C9F730
:102F7000620F731F841F951FA01D08952F923F920B
:102F80004F925F926F927F928F929F92AF92BF9279
:102F9000CF92DF92EF92FF920F931F93CF93DF9325
:102FA000CDB7DEB7CA1BDB0B0FB6F894DEBF0FBE82
:102FB000CDBF09942A88398848885F846E847D84CF
:102FC0008C849B84AA84B984C884DF80EE80FD80D1
:102FD0000C811B81AA81B981CE0FD11D0FB6F89447
:0E2FE000DEBF0FBECDBFED010895F894FFCF08
:102FEE0059455300253032783A253032783A25301B
:102FFE003278202000253032782F253032782F2558
:10300E0030327800456E74657250617373776F72EB
:10301E006400456E74657250617373776F7264618C
:10302E006761696E00446F6E650057656C636F6D06
:10303E0065004F70656E20646F6F7220274F2700FA
:10304E004C6F636B2074686520686F7573652027FD
:10305E004C27005475726E206665617475726573C7
:10306E00206F6E274E270057726F6E6720456E7465
:10307E0072790001060001003738392F3435362AAF
:10308E003132332D63303D2B424242030506010699
:10309E000B17070B2E320003000310FF0320FF0156
:1030AE0017FF0004000008000117FF0004000008CD
:0A30BE00000117FF0004FF0008FFE7
:00000001FF
