S010000074657374696E67312E73726563E5
S113000071C000008EC000008CC000008AC00000D7
S113001088C0000086C0000084C0000082C00000C8
S113002080C000007EC000007CC000007AC00000D8
S113003078C0000076C0000074C0000072C00000E8
S113004070C000006EC000006CC000006AC00000F8
S113005068C0000066C0000064C0000062C0000008
S113006060C000005EC000005CC000005AC0000018
S113007058C0000056C0000054C0000052C0000028
S113008050C000004EC000004CC000004AC0000038
S113009048C0000046C0000044C0000042C0000048
S11300A040C000003EC000003CC000003AC0000058
S11300B038C0000036C0000034C0000032C0000068
S11300C030C000002EC000002CC000002AC0000078
S11300D028C0000026C0000024C0000022C0000088
S11300E020C0000011241FBECFEFD1E2DEBFCDBF80
S11300F000E00CBF12E0A0E0B2E0ECE8FAE000E0BF
S11301000BBF02C007900D92A431B107D9F722E0CA
S1130110A4E1B2E001C01D92AD31B207E1F73CD4D5
S1130120B3C46ECF8AB180688AB98BB18F778BB92B
S11301308FE097E20197F1F700C000008BB180686F
S11301408BB996E09A95F1F700C008958AB18F773C
S11301508AB94F99FECF4F9BFECF4F99FECF08959A
S113016040E050E020E024C04F9BFECF30E13A95C0
S1130170F1F700C04F9B05C030E0220F331F216010
S113018001C0220F4F99FECF019602C080E090E09B
S1130190883091054CF34115510519F420931C0244
S11301A005C04130510511F4209316024F5F5F4F93
S11301B0423051055CF320911C0230E0322F22279B
S11301C080911602282BADECBCEC12D49695879541
S11301D0969587959695879590931502809314022A
S11301E0089540E050E020E024C04F9BFECF30E172
S11301F03A95F1F700C04F9B05C030E0220F331F42
S1130200216001C0220F4F99FECF019602C080E009
S113021090E0883091054CF34230510519F4209355
S11302201A0205C04330510511F4209317024F5FA1
S11302305F4F443051055CF320911A0230E0322FB5
S1130240222780911702282BADECBCECD1D39695D4
S1130250879596958795969587959093190280939F
S113026018020895683008F03BC18B3008F038C19B
S1130270811119C0413059F421B181E090E002C0EC
S1130280880F991F6A95E2F7822B81B9089521B1ED
S113029081E090E002C0880F991F6A95E2F780958B
S11302A0822381B908958130C9F4413059F424B1CD
S11302B081E090E002C0880F991F6A95E2F7822BD3
S11302C084B9089524B181E090E002C0880F991F99
S11302D06A95E2F78095822384B908958230C9F43F
S11302E0413059F427B181E090E002C0880F991F92
S11302F06A95E2F7822B87B9089527B181E090E0EF
S113030002C0880F991F6A95E2F78095822387B906
S113031008958330C9F4413059F42AB181E090E062
S113032002C0880F991F6A95E2F7822B8AB9089553
S11303302AB181E090E002C0880F991F6A95E2F724
S1130340809582238AB908958430C9F4413059F4E0
S11303502DB181E090E002C0880F991F6A95E2F701
S1130360822B8DB908952DB181E090E002C0880FF1
S1130370991F6A95E2F7809582238DB90895853097
S1130380C9F4413059F420B381E090E002C0880FF1
S1130390991F6A95E2F7822B80BB089520B381E010
S11303A090E002C0880F991F6A95E2F78095822336
S11303B080BB08958630C9F4413059F423B381E0F9
S11303C090E002C0880F991F6A95E2F7822B83BBE5
S11303D0089523B381E090E002C0880F991F6A95C5
S11303E0E2F78095822383BB08958730E9F4413096
S11303F069F4E1E0F1E0208181E090E002C0880F3F
S1130400991F6A95E2F7822B80830895E1E0F1E079
S1130410208181E090E002C0880F991F6A95E2F77D
S113042080958223808308958830E9F4413069F40B
S1130430E4E0F1E0208181E090E002C0880F991FA0
S11304406A95E2F7822B80830895E4E0F1E020814D
S113045081E090E002C0880F991F6A95E2F78095C9
S11304608223808308958930E9F4413069F4E7E018
S1130470F1E0208181E090E002C0880F991F6A9525
S1130480E2F7822B80830895E7E0F1E0208181E0A8
S113049090E002C0880F991F6A95E2F78095822345
S11304A0808308958A30E1F4413069F4EAE0F1E0B0
S11304B0208181E090E002C0880F991F6A95E2F7DD
S11304C0822B80830895EAE0F1E0208181E090E0CE
S11304D002C0880F991F6A95E2F780958223808372
S11304E00895683008F03BC18B3008F038C18111A1
S11304F019C0413059F422B181E090E002C0880F64
S1130500991F6A95E2F7822B82B9089522B181E09E
S113051090E002C0880F991F6A95E2F780958223C4
S113052082B908958130C9F4413059F425B181E08C
S113053090E002C0880F991F6A95E2F7822B85B973
S1130540089525B181E090E002C0880F991F6A9553
S1130550E2F78095822385B908958230C9F4413049
S113056059F428B181E090E002C0880F991F6A9580
S1130570E2F7822B88B9089528B181E090E002C0A7
S1130580880F991F6A95E2F78095822388B90895A8
S11305908330C9F4413059F42BB181E090E002C0BA
S11305A0880F991F6A95E2F7822B8BB908952BB1B6
S11305B081E090E002C0880F991F6A95E2F7809568
S11305C082238BB908958430C9F4413059F42EB193
S11305D081E090E002C0880F991F6A95E2F7822BB0
S11305E08EB908952EB181E090E002C0880F991F62
S11305F06A95E2F7809582238EB908958530C9F40F
S1130600413059F421B381E090E002C0880F991F72
S11306106A95E2F7822B81BB089521B381E090E0D3
S113062002C0880F991F6A95E2F78095822381BBE7
S113063008958630C9F4413059F424B381E090E040
S113064002C0880F991F6A95E2F7822B84BB089534
S113065024B381E090E002C0880F991F6A95E2F705
S11306608095822384BB08958730E9F4413069F48E
S1130670E2E0F1E0208181E090E002C0880F991F60
S11306806A95E2F7822B80830895E2E0F1E020810D
S113069081E090E002C0880F991F6A95E2F7809587
S11306A08223808308958830E9F4413069F4E5E0D9
S11306B0F1E0208181E090E002C0880F991F6A95E3
S11306C0E2F7822B80830895EBE0F1E0208181E062
S11306D090E002C0880F991F6A95E2F78095822303
S11306E0808308958930E9F4413069F4E8E0F1E069
S11306F0208181E090E002C0880F991F6A95E2F79B
S1130700822B80830895E8E0F1E0208181E090E08D
S113071002C0880F991F6A95E2F78095822380832F
S113072008958A30E1F4413069F4EBE0F1E020818E
S113073081E090E002C0880F991F6A95E2F7822B4E
S113074080830895EBE0F1E0208181E090E002C035
S1130750880F991F6A95E2F7809582238083089514
S11307608B3078F5811102C061B90895813011F49C
S113077064B90895823011F467B90895833011F48F
S11307806AB90895843011F46DB90895853011F46F
S113079060BB0895863011F463BB0895873019F463
S11307A0609301010895883019F460930401089559
S11307B0893019F46093070108958A3011F4609325
S11307C00A0108958B3078F5811102C062B9089549
S11307D0813011F465B90895823011F468B908952F
S11307E0833011F46BB90895843011F46EB908950F
S11307F0853011F461BB0895863011F464BB08950B
S1130800873019F4609302010895883019F46093D5
S113081005010895893019F46093080108958A3018
S113082011F460930B010895CF93C82F40E064E066
S113083083E057DE40E065E083E053DE89EF90E03B
S11308400197F1F700C0000041E066E083E049DE73
S113085089EF90E00197F1F700C000006C2F82E06F
S1130860B1DF89EF90E00197F1F700C0000040E0AC
S113087066E083E036DE89EF90E00197F1F700C08F
S11308800000CF91089541E064E083E0EBDC41E0B7
S113089065E083E0E7DC41E066E083E0E3DC6FEF02
S11308A082E05EDF88E3C0DF8CE0BEDF81E0BCCFA6
S11308B00895CF93C82F41E064E083E012DE40E066
S11308C065E083E00EDE89EF90E00197F1F700C068
S11308D0000041E066E083E004DE89EF90E00197E8
S11308E0F1F700C000006C2F82E06CDF89EF90E02C
S11308F00197F1F700C0000040E066E083E0F1DD1D
S113090089EF90E00197F1F700C00000CF910895BE
S11309100F931F93CF938C01C0E002C0CADFCF5F57
S1130920F801EC0FF11D80818111F8CFCF911F9157
S11309300F910895813031F070F0823031F08330BE
S113094039F00AC090E4960F07C090E1960F04C0F6
S113095090E5960F01C0962F892F806865CF089582
S1130960CF93DF93CDB7DEB760970FB6F894DEBFB1
S11309700FBECDBF4AE050E0BE016F5F7F4F47D04E
S1130980CE010196C5DF60960FB6F894DEBF0FBEA8
S1130990CDBFDF91CF91089576DF60E080E0CADFBC
S11309A080E092E0B5DF6CE080E0C4DF8AE092E0B2
S11309B0AFDF60E081E0BEDF8CE092E0A9DF6CE0B5
S11309C081E0B8DF82E192E0A3DFACDBBFDB09DCCE
S11309D0EC01A8DBBBDBC4DB8C0169E080E0AADFAF
S11309E0C801BEDF69E081E0A5DFCE01B9DFEDCF4C
S11309F0A29FB001B39FC001A39F700D811D11245C
S1130A00911DB29F700D811D1124911D08954532D1
S1130A10510518F4423008F004C0FB011082CB01E8
S1130A200895BB274A3031F4992322F4BDE290950E
S1130A3081959F4F01C0BB27FB015527AA27880F2B
S1130A40991FAA1FA41710F0A41B83955051B9F73E
S1130A50A05DAA3308F0A95DA193009779F7B111BD
S1130A60B1931192CB0100C0DC01FC01672F71919D
S1130A707723E1F7329704C07C916D937083629180
S10F0A80AE17BF07C8F30895F894FFCF29
S1130A8C48756D61646974793A00250054656D701C
S1070A9C3A004300D5
S9030000FC
