:100000000C942A000C9447000C9447000C94470071
:100010000C9447000C9447000C9447000C94470044
:100020000C9447000C9447000C9447000C94470034
:100030000C9447000C9447000C9447000C94470024
:100040000C9447000C9447000C9447000C94470014
:100050000C94470011241FBECFE5D8E0DEBFCDBF12
:1000600011E0A0E6B0E0ECEBF2E102C005900D92E9
:10007000A035B107D9F721E0A0E5B1E001C01D929C
:10008000A73CB207E1F70E94D5030C945C090C94DD
:10009000000087B3806187BB87B3806287BB60E065
:1000A00084E00E94980660E085E00E94980608952A
:1000B000813051F488B38F7E88BB88B3806288BB5F
:1000C000862F0E9421070895823051F488B3806101
:1000D00088BB88B38F7D88BB862F0E942107089537
:1000E000811109C088B38F7E88BB88B38F7D88BBA0
:1000F000862F0E942107089561E08AE00E949806F9
:1001000083E08A95F1F7000060E08AE00E9498069B
:1001100083EF91E00197F1F700C000000895CF93BD
:10012000C82F60E088E00E94980660E089E00E94A5
:100130009806CC232CF461E087E00E94980604C066
:1001400060E087E00E949806C6FF05C061E086E097
:100150000E94980604C060E086E00E949806C5FFF1
:1001600005C061E085E00E94980604C060E085E07B
:100170000E949806C4FF05C061E084E00E949806D2
:1001800004C060E084E00E9498060E947C00C3FFE7
:1001900005C061E087E00E94980604C060E087E047
:1001A0000E949806C2FF05C061E086E00E949806A2
:1001B00004C060E086E00E949806C1FF05C061E0CF
:1001C00085E00E94980604C060E085E00E949806E1
:1001D000C0FF05C061E084E00E94980604C060E0B2
:1001E00084E00E9498060E947C00CF91089587E8E1
:1001F00093E10197F1F700C0000083E30E948F00B4
:1002000082E30E948F0088E20E948F008EE00E94AD
:100210008F0086E00E948F0080E80E948F0081E0BE
:100220000E948F000895813019F0823031F00895D6
:100230008FE7860F0E948F0008958FEB860F0E9434
:100240008F000895CF93C82F61E088E00E94980640
:1002500060E089E00E949806CC232CF461E087E0FE
:100260000E94980604C060E087E00E949806C6FFDE
:1002700005C061E086E00E94980604C060E086E068
:100280000E949806C5FF05C061E085E00E949806BF
:1002900004C060E085E00E949806C4FF05C061E0EC
:1002A00084E00E94980604C060E084E00E94980602
:1002B0000E947C00C3FF05C061E087E00E949806B1
:1002C00004C060E087E00E949806C2FF05C061E0BC
:1002D00086E00E94980604C060E086E00E949806CE
:1002E000C1FF05C061E085E00E94980604C060E09F
:1002F00085E00E949806C0FF05C061E084E00E948E
:10030000980604C060E084E00E9498060E947C0089
:10031000CF910895CF93C82F862F642F0E94130189
:100320008C2F0E942201CF910895CF93DF93EC018F
:1003300003C021960E94220188818111FACFDF91AA
:10034000CF910895CF93DF93EC01862F642F0E9405
:100350001301CE010E949501DF91CF910895CF93B3
:10036000DF931092540181E00E948F0083ED90E3AF
:100370000197F1F700C0000041E061E089E990E0F9
:100380000E94A2019FE322E48FE091502040804030
:10039000E1F700C00000C0E0D0E020C00E946B0781
:1003A0008093B90187EA91E60197F1F700C0000058
:1003B000FE01E555FE4F8091B90180834C2F4F5FC0
:1003C00062E08AE20E948A019FE926E881E091507A
:1003D00020408040E1F700C000002196C430D105E4
:1003E000ECF29FE322E48FE0915020408040E1F75F
:1003F00000C0000081E00E948F0083ED90E3019730
:10040000F1F700C0000041E061E087EA90E00E945F
:10041000A2019FE322E48FE0915020408040E1F769
:1004200000C00000C0E0D0E01FC00E946B078093B6
:10043000B90187EA91E60197F1F700C000008091C9
:10044000B901803389F0FE01E554FE4F80834C2FC3
:100450004F5F62E08AE20E948A0183ED90E3019798
:10046000F1F700C000002196C430D105F4F280E01D
:1004700090E00EC0FC01E555FE4F3081FC01E554D3
:10048000FE4F2081321719F021E02093540101968C
:10049000843091057CF38091540181116FC080916B
:1004A000A701811147C0EBEAF1E060816093C601CA
:1004B00081818093AA0182818093C5018381809389
:1004C000A80186E090E00E944F096091AA0182E0B5
:1004D00090E00E944F096091C50183E090E00E9486
:1004E0004F096091A80184E090E00E944F0927C065
:1004F0008091BA01E82FF0E0DE01A555BE4F2C91A6
:10050000EE0FFF1FEB5AFE4F30E0318320838F5FE9
:100510008093BA0142E550E060E070E085E591E04B
:100520000E9445096091BA0180EF90E00E944F0956
:10053000219602C0C0E0D0E0C430D105CCF2609179
:10054000B5016F5F6093A7018FEF90E00E944F09A4
:100550008091A701811103C081E08093A701809160
:10056000A70190E09093B6018093B50142E050E07E
:1005700060E070E085EB91E00E9445099FE322E492
:100580008FE0915020408040E1F700C00000DF91F3
:10059000CF9108951F93CF93DF931092530186E07C
:1005A00090E00E943D098093C60182E090E00E94A5
:1005B0003D098093AA0183E090E00E943D09809369
:1005C000C50184E090E00E943D098093A8018FEF6F
:1005D00090E00E943D098093A70181E00E948F0076
:1005E00083ED90E30197F1F700C0000041E061E086
:1005F0008AEB90E00E94A20183ED90E30197F1F76E
:1006000000C000000E946B07182F87EA91E601974F
:10061000F1F700C000004EE061E0812F0E948A01E6
:100620009FED23E944E0915020404040E1F700C0B5
:10063000000081E00E948F0083ED90E30197F1F7C5
:1006400000C0000041E061E088EC90E00E94A2015F
:1006500083ED90E30197F1F700C00000C0E0D0E027
:1006600028C00E946B078093B90187EA91E6019741
:10067000F1F700C000008091B901803389F0FE01DC
:10068000E555FE4F80834C2F4F5F62E08AE20E9467
:100690008A0183ED90E30197F1F700C000002196F5
:1006A0009FE926E841E0915020404040E1F700C03A
:1006B0000000C430D105ACF21033E1F49091AB01ED
:1006C0008091C60198136DC09091AC018091AA01F0
:1006D000981367C09091AD018091C501981361C0D6
:1006E0009091AE018091A80198135BC081E0809346
:1006F000530157C0412F50E04153510980E090E031
:1007000020E030E003C02C5F3F4F019648175907A7
:10071000D4F78FE392E44FE0815090404040E1F7FE
:1007200000C00000F9013196EE0FFF1FEB5AFE4F9B
:100730004081518155278091AB0190E048175907BE
:1007400081F5F9013296EE0FFF1FEB5AFE4F408103
:10075000518155278091AC0190E04817590709F560
:10076000F9013396EE0FFF1FEB5AFE4F4081518186
:1007700055278091AD0190E04817590791F4F90190
:100780003496EE0FFF1FEB5AFE4F20813181332745
:100790008091AE0190E02817390719F481E0809329
:1007A0005301DF91CF911F9108950E94BB050E94D4
:1007B000F7000E94490060E875E280E090E00E9446
:1007C0003D079FEF9ABB81B3806181BB8AB3826092
:1007D0008ABB9BBB87B3806487BB87B3806887BBBA
:1007E00088B38F7B88BB88B38F7788BB42E050E0AB
:1007F00060E070E085EB91E00E942D0942E550E059
:1008000060E070E085E591E00E942D0980E090E0D5
:100810000E943D09809350018091B5018093A90108
:10082000811106C081E08093BA018093500105C018
:10083000880F880F8F5F8093BA018091A90184335C
:1008400010F01092BA016091BA0180EF90E00E941E
:100850004F0941E061E089ED90E00E94A20141E092
:1008600062E08AEE90E00E94A2012FE382E49FE022
:10087000215080409040E1F700C000000E946B07CB
:100880008093B90183ED90E30197F1F700C0000078
:100890008091B901882309F4A9CF813309F06BC095
:1008A0008091A7018A3050F181E00E948F0083ED92
:1008B00090E30197F1F700C0000041E061E089EFAB
:1008C00090E00E94A20142E062E085E091E00E9497
:1008D000A2019FE322E48FE0915020408040E1F7A5
:1008E00000C0000081E0809351019FE72AE186E08B
:1008F000915020408040E1F700C0000080915101FC
:10090000811174CF0E94AF01809154018130C1F4F4
:100910000E948F0083ED90E30197F1F700C0000083
:1009200041E061E08EE091E00E94A2019FE322E4B9
:100930008FE0915020408040E1F700C0000056CF8A
:10094000811154CF81E00E948F0083ED90E30197E5
:10095000F1F700C0000041E061E085E191E00E9414
:10096000A2019FE322E48FE0915020408040E1F714
:1009700000C000003BCF823309F038CF0E94CA028A
:1009800080915301813009F058C09FE32DE083E04E
:10099000915020408040E1F700C0000081E00E94BB
:1009A0008F0083ED90E30197F1F700C0000041E074
:1009B00061E08BE191E00E94A20182B3806182BB81
:1009C0009FEF29E688E1915020408040E1F700C088
:1009D000000064E681E00E9458009FEF29E688E16C
:1009E000915020408040E1F700C0000064E682E0C2
:1009F0000E9458009FEF29E688E1915020408040F6
:100A0000E1F700C0000060E080E00E9458009FEB2A
:100A10002CE585E1915020408040E1F700C00000C6
:100A200081E00E948F0083ED90E30197F1F700C011
:100A3000000082B38F7E82BBD9CE81E00E948F00FE
:100A400083ED90E30197F1F700C0000041E061E021
:100A500084E291E00E94A201809152018F5F809315
:100A6000520188B3806888BB9FE322E48FE09150F5
:100A700020408040E1F700C00000C0E016C081E0E7
:100A80000E948F0083ED90E30197F1F700C0000012
:100A90000E94CA0280915301813031F0809152014D
:100AA0008F5F8093520101C0C1E080915201833079
:100AB00011F0CC2321F388B38F7788BB809152014A
:100AC000833009F093CE1092520181E00E948F0092
:100AD00083ED90E30197F1F700C0000041E061E091
:100AE00084E391E00E94A20141E062E088E491E0A9
:100AF0000E94A20188B3806888BB9FE322E48FE054
:100B0000915020408040E1F700C0000061E08EE09D
:100B10000E9498069FEF29E688E19150204080408E
:100B2000E1F700C0000060E08EE00E9498069FEFB1
:100B300029E688E1915020408040E1F700C00000A4
:100B400061E08EE00E9498069FEF29E688E19150CF
:100B500020408040E1F700C0000060E08EE00E948D
:100B600098069FEF29E688E1915020408040E1F708
:100B700000C000003BCE20E0D7C0822F90E0FC01F7
:100B8000EE0FFF1FE80FF91FE05AFF4F30813111C0
:100B900031C0FC01EE0FFF1FE80FF91FE05AFF4FB5
:100BA0003281313099F43AB3FC01EE0FFF1FE80FA8
:100BB000F91FE05AFF4F81E090E0018002C0880FEA
:100BC000991F0A94E2F7832B8ABBADC03AB3FC01AC
:100BD000EE0FFF1FE80FF91FE05AFF4F81E090E092
:100BE000018002C0880F991F0A94E2F78095832341
:100BF0008ABB99C0313089F5FC01EE0FFF1FE80F69
:100C0000F91FE05AFF4F3281313099F437B3FC01BC
:100C1000EE0FFF1FE80FF91FE05AFF4F81E090E051
:100C2000018002C0880F991F0A94E2F7832B87BBCB
:100C30007AC037B3FC01EE0FFF1FE80FF91FE05A2F
:100C4000FF4F81E090E0018002C0880F991F0A9455
:100C5000E2F78095832387BB66C0323089F5FC01BB
:100C6000EE0FFF1FE80FF91FE05AFF4F32813130BE
:100C700099F434B3FC01EE0FFF1FE80FF91FE05A9F
:100C8000FF4F81E090E0018002C0880F991F0A9415
:100C9000E2F7832B84BB47C034B3FC01EE0FFF1F88
:100CA000E80FF91FE05AFF4F81E090E0018002C099
:100CB000880F991F0A94E2F78095832384BB33C081
:100CC000333089F5FC01EE0FFF1FE80FF91FE05AE2
:100CD000FF4F3281313099F431B3FC01EE0FFF1F29
:100CE000E80FF91FE05AFF4F81E090E0018002C059
:100CF000880F991F0A94E2F7832B81BB14C031B38C
:100D0000FC01EE0FFF1F8E0F9F1FFC01E05AFF4FEB
:100D100081E090E0018002C0880F991F0A94E2F7F9
:100D20008095832381BB2F5F233108F426CF08955C
:100D3000982F969596959695877091111FC0613062
:100D400069F44BB321E030E0B90102C0660F771FB0
:100D50008A95E2F7CB01842B8BBB0895611170C09B
:100D60004BB321E030E0B90102C0660F771F8A95CE
:100D7000E2F7CB01809584238BBB08959130F9F481
:100D8000613069F448B321E030E0B90102C0660F78
:100D9000771F8A95E2F7CB01842B88BB08956111F8
:100DA0004FC048B321E030E0B90102C0660F771FA1
:100DB0008A95E2F7CB018095842388BB0895923011
:100DC000F9F4613069F445B321E030E0B90102C0C3
:100DD000660F771F8A95E2F7CB01842B85BB0895B8
:100DE00061112EC045B321E030E0B90102C0660FA9
:100DF000771F8A95E2F7CB018095842385BB089500
:100E00009330F1F4613069F442B321E030E0B9018C
:100E100002C0660F771F8A95E2F7CB01842B82BB55
:100E2000089561110DC042B321E030E0B90102C064
:100E3000660F771F8A95E2F7CB018095842382BBEA
:100E4000089512BE682F70E080E090E00E941008C4
:100E500020E030E048EC52E40E946F0720E030E0F0
:100E60004FE753E40E949E080E94E1076CBF8AE6A8
:100E700083BF87B3886087BB08952AB128612AB9E8
:100E800020B5266820BDDC01CB01880F991FAA1F61
:100E9000BB1F880F991FAA1FBB1F9C01AD01220F0A
:100EA000331F441F551F220F331F441F551F60E07F
:100EB00072E18AE790E00E940B098FEF820F89B9F7
:100EC000DA01C9010197A109B109892F9A2FAB2F26
:100ED000BB2780BD08955F9BFECF8CB108950E9413
:100EE00083070C9464080E945D0858F00E9456081D
:100EF00040F029F45F3F29F00C944D0851110C94F7
:100F000098080C9453080E94750868F39923B1F36C
:100F1000552391F3951B550BBB27AA27621773071F
:100F2000840738F09F5F5F4F220F331F441FAA1FB3
:100F3000A9F335D00E2E3AF0E0E832D0915050406F
:100F4000E695001CCAF72BD0FE2F29D0660F771F1D
:100F5000881FBB1F261737074807AB07B0E809F003
:100F6000BB0B802DBF01FF2793585F4F3AF09E3F88
:100F7000510578F00C944D080C9498085F3FE4F309
:100F8000983ED4F3869577956795B795F7959F5FCB
:100F9000C9F7880F911D9695879597F90895E1E017
:100FA000660F771F881FBB1F621773078407BA0776
:100FB00020F0621B730B840BBA0BEE1F88F7E095D1
:100FC00008950E947D0888F09F5798F0B92F9927BF
:100FD000B751B0F0E1F0660F771F881F991F1AF024
:100FE000BA95C9F714C0B13091F00E949708B1E0EA
:100FF00008950C949708672F782F8827B85F39F0E9
:10100000B93FCCF3869577956795B395D9F73EF4BC
:1010100090958095709561957F4F8F4F9F4F089564
:10102000E89409C097FB3EF4909580957095619582
:101030007F4F8F4F9F4F9923A9F0F92F96E9BB2738
:101040009395F695879577956795B795F111F8CFB4
:10105000FAF4BB0F11F460FF1BC06F5F7F4F8F4F1F
:101060009F4F16C0882311F096E911C0772321F015
:101070009EE8872F762F05C0662371F096E8862FAD
:1010800070E060E02AF09A95660F771F881FDAF704
:10109000880F9695879597F9089597F99F6780E847
:1010A00070E060E008959FEF80EC089500240A94BA
:1010B0001616170618060906089500240A94121633
:1010C0001306140605060895092E0394000C11F466
:1010D000882352F0BB0F40F4BF2B11F460FF04C013
:1010E0006F5F7F4F8F4F9F4F089557FD9058440F6C
:1010F000551F59F05F3F71F04795880F97FB991F77
:1011000061F09F3F79F08795089512161306140633
:10111000551FF2CF4695F1DF08C0161617061806C0
:10112000991FF1CF86957105610508940895E8949B
:10113000BB2766277727CB0197F908950E94B1084E
:101140000C9464080E94560838F00E945D0820F054
:10115000952311F00C944D080C94530811240C9411
:1011600098080E94750870F3959FC1F3950F50E0A1
:10117000551F629FF001729FBB27F00DB11D639F49
:10118000AA27F00DB11DAA1F649F6627B00DA11DEF
:10119000661F829F2227B00DA11D621F739FB00D95
:1011A000A11D621F839FA00D611D221F749F332705
:1011B000A00D611D231F849F600D211D822F762F9E
:1011C0006A2F11249F5750409AF0F1F088234AF07B
:1011D000EE0FFF1FBB1F661F771F881F91505040E7
:1011E000A9F79E3F510580F00C944D080C94980887
:1011F0005F3FE4F3983ED4F3869577956795B7956E
:10120000F795E7959F5FC1F7FE2B880F911D969587
:10121000879597F90895A1E21A2EAA1BBB1BFD0121
:101220000DC0AA1FBB1FEE1FFF1FA217B307E407C5
:10123000F50720F0A21BB30BE40BF50B661F771F1D
:10124000881F991F1A9469F76095709580959095FD
:101250009B01AC01BD01CF010895DC01CB01FC0174
:10126000E199FECF06C0FFBBEEBBE09A31960DB20E
:101270000D9241505040B8F70895E199FECF9FBBC1
:101280008EBBE09A99278DB30895DC01CB0103C092
:101290002D910E94500941505040D0F70895262FBB
:1012A000E199FECF9FBB8EBB2DBB0FB6F894E29A9F
:0C12B000E19A0FBE01960895F894FFCF5C
:1012BC0003070100040100050100060100070101FC
:1012CC0000010101010102010200010201010202FF
:1012DC0001020301020400020500020600020700DD
:1012EC00000000000000000000456E746572506143
:1012FC007373776F72640020456E74657220506151
:10130C0073732E616761696E3A0055736572204E76
:10131C00756D6265723A2000456E7465722050617D
:10132C007373776F72643A2000205369676E20558F
:10133C00702070726573733A31006C6F6720696E40
:10134C002050726573733A3200204578636565648A
:10135C00204E756D006F66207573657273002041A9
:10136C006761696E0020446F6E65002057656C6381
:10137C006F6D65002057726F6E67205061737377C5
:10138C006F7264004578636565646564204E756DA5
:10139C00626572206F662000547269616C73200064
:00000001FF
