:1000000071C000008EC000008CC000008AC00000DB
:1000100088C0000086C0000084C0000082C00000CC
:1000200080C000007EC000007CC000007AC00000DC
:1000300078C0000076C0000074C0000072C00000EC
:1000400070C000006EC000006CC000006AC00000FC
:1000500068C0000066C0000064C0000062C000000C
:1000600060C000005EC000005CC000005AC000001C
:1000700058C0000056C0000054C0000052C000002C
:1000800050C000004EC000004CC000004AC000003C
:1000900048C0000046C0000044C0000042C000004C
:1000A00040C000003EC000003CC000003AC000005C
:1000B00038C0000036C0000034C0000032C000006C
:1000C00030C000002EC000002CC000002AC000007C
:1000D00028C0000026C0000024C0000022C000008C
:1000E00020C0000011241FBECFEFD1E2DEBFCDBF84
:1000F00000E00CBF12E0A0E0B2E0E6EAF0E100E0D0
:100100000BBF02C007900D92A232B107D9F722E0CF
:10011000A2E2B2E001C01D92A033B207E1F780D3A2
:10012000C0C76ECF683008F03BC18B3008F038C1D3
:10013000811119C0413059F421B181E090E002C031
:10014000880F991F6A95E2F7822B81B9089521B132
:1001500081E090E002C0880F991F6A95E2F78095D0
:10016000822381B908958130C9F4413059F424B112
:1001700081E090E002C0880F991F6A95E2F7822B18
:1001800084B9089524B181E090E002C0880F991FDE
:100190006A95E2F78095822384B908958230C9F484
:1001A000413059F427B181E090E002C0880F991FD7
:1001B0006A95E2F7822B87B9089527B181E090E034
:1001C00002C0880F991F6A95E2F78095822387B94C
:1001D00008958330C9F4413059F42AB181E090E0A8
:1001E00002C0880F991F6A95E2F7822B8AB9089599
:1001F0002AB181E090E002C0880F991F6A95E2F76A
:10020000809582238AB908958430C9F4413059F425
:100210002DB181E090E002C0880F991F6A95E2F746
:10022000822B8DB908952DB181E090E002C0880F36
:10023000991F6A95E2F7809582238DB908958530DC
:10024000C9F4413059F420B381E090E002C0880F36
:10025000991F6A95E2F7822B80BB089520B381E055
:1002600090E002C0880F991F6A95E2F7809582237B
:1002700080BB08958630C9F4413059F423B381E03E
:1002800090E002C0880F991F6A95E2F7822B83BB2A
:10029000089523B381E090E002C0880F991F6A950A
:1002A000E2F78095822383BB08958730E9F44130DB
:1002B00069F4E1E0F1E0208181E090E002C0880F84
:1002C000991F6A95E2F7822B80830895E1E0F1E0BF
:1002D000208181E090E002C0880F991F6A95E2F7C3
:1002E00080958223808308958830E9F4413069F451
:1002F000E4E0F1E0208181E090E002C0880F991FE6
:100300006A95E2F7822B80830895E4E0F1E0208192
:1003100081E090E002C0880F991F6A95E2F780950E
:100320008223808308958930E9F4413069F4E7E05D
:10033000F1E0208181E090E002C0880F991F6A956A
:10034000E2F7822B80830895E7E0F1E0208181E0ED
:1003500090E002C0880F991F6A95E2F7809582238A
:10036000808308958A30E1F4413069F4EAE0F1E0F5
:10037000208181E090E002C0880F991F6A95E2F722
:10038000822B80830895EAE0F1E0208181E090E013
:1003900002C0880F991F6A95E2F7809582238083B7
:1003A0000895683008F03BC18B3008F038C18111E6
:1003B00019C0413059F422B181E090E002C0880FA9
:1003C000991F6A95E2F7822B82B9089522B181E0E4
:1003D00090E002C0880F991F6A95E2F7809582230A
:1003E00082B908958130C9F4413059F425B181E0D2
:1003F00090E002C0880F991F6A95E2F7822B85B9B9
:10040000089525B181E090E002C0880F991F6A9598
:10041000E2F78095822385B908958230C9F441308E
:1004200059F428B181E090E002C0880F991F6A95C5
:10043000E2F7822B88B9089528B181E090E002C0EC
:10044000880F991F6A95E2F78095822388B90895ED
:100450008330C9F4413059F42BB181E090E002C0FF
:10046000880F991F6A95E2F7822B8BB908952BB1FB
:1004700081E090E002C0880F991F6A95E2F78095AD
:1004800082238BB908958430C9F4413059F42EB1D8
:1004900081E090E002C0880F991F6A95E2F7822BF5
:1004A0008EB908952EB181E090E002C0880F991FA7
:1004B0006A95E2F7809582238EB908958530C9F454
:1004C000413059F421B381E090E002C0880F991FB8
:1004D0006A95E2F7822B81BB089521B381E090E019
:1004E00002C0880F991F6A95E2F78095822381BB2D
:1004F00008958630C9F4413059F424B381E090E086
:1005000002C0880F991F6A95E2F7822B84BB089579
:1005100024B381E090E002C0880F991F6A95E2F74A
:100520008095822384BB08958730E9F4413069F4D3
:10053000E2E0F1E0208181E090E002C0880F991FA5
:100540006A95E2F7822B80830895E2E0F1E0208152
:1005500081E090E002C0880F991F6A95E2F78095CC
:100560008223808308958830E9F4413069F4E5E01E
:10057000F1E0208181E090E002C0880F991F6A9528
:10058000E2F7822B80830895EBE0F1E0208181E0A7
:1005900090E002C0880F991F6A95E2F78095822348
:1005A000808308958930E9F4413069F4E8E0F1E0AE
:1005B000208181E090E002C0880F991F6A95E2F7E0
:1005C000822B80830895E8E0F1E0208181E090E0D3
:1005D00002C0880F991F6A95E2F780958223808375
:1005E00008958A30E1F4413069F4EBE0F1E02081D4
:1005F00081E090E002C0880F991F6A95E2F7822B94
:1006000080830895EBE0F1E0208181E090E002C07A
:10061000880F991F6A95E2F7809582238083089559
:100620008B3078F5811102C061B90895813011F4E1
:1006300064B90895823011F467B90895833011F4D4
:100640006AB90895843011F46DB90895853011F4B4
:1006500060BB0895863011F463BB0895873019F4A8
:10066000609301010895883019F46093040108959E
:10067000893019F46093070108958A3011F460936A
:100680000A0108958B3078F5811102C062B908958E
:10069000813011F465B90895823011F468B9089574
:1006A000833011F46BB90895843011F46EB9089554
:1006B000853011F461BB0895863011F464BB089550
:1006C000873019F4609302010895883019F460931B
:1006D00005010895893019F46093080108958A305E
:1006E00011F460930B010895CF93C82F40E064E0AC
:1006F00081E057DE40E065E081E053DE89EF90E085
:100700000197F1F700C0000041E066E081E049DEBA
:1007100089EF90E00197F1F700C000006C2F82E0B4
:10072000B1DF89EF90E00197F1F700C0000040E0F1
:1007300066E081E036DE89EF90E00197F1F700C0D6
:100740000000CF91089541E064E081E0EBDC41E0FE
:1007500065E081E0E7DC41E066E081E0E3DC6FEF4B
:1007600082E05EDF88E3C0DF8CE0BEDF81E0BCCFEB
:100770000895CF93C82F41E064E081E012DE40E0AD
:1007800065E081E00EDE89EF90E00197F1F700C0AF
:10079000000041E066E081E004DE89EF90E001972F
:1007A000F1F700C000006C2F82E06CDF89EF90E071
:1007B0000197F1F700C0000040E066E081E0F1DD64
:1007C00089EF90E00197F1F700C00000CF91089504
:1007D0000F931F93CF938C01C0E002C0CADFCF5F9D
:1007E000F801EC0FF11D80818111F8CFCF911F919D
:1007F0000F910895813031F070F0823031F0833004
:1008000039F00AC090E4960F07C090E1960F04C03B
:1008100090E5960F01C0962F892F806865CF0895C7
:10082000CF93DF93CDB7DEB764970FB6F894DEBFF2
:100830000FBECDBF88DFDDD0E7D080E09AD08091B9
:1008400028029091290286FF41C0209125022F9312
:10085000209124022F93209127022F93209126028A
:100860002F938F7199279F938F9380E092E09F93AE
:100870008F93CE0101969F938F9338D18091280258
:1008800072D00FB6F894DEBF0FBECDBF882361F0E3
:10089000FE01319601900020E9F7319780E59DE453
:1008A0009183808312820BC0FE013196019000205B
:1008B000E9F7319781E49DE491838083128260E0BF
:1008C00080E098DFCE01019683DF24C020912502CD
:1008D0002F93209124022F93209127022F93209170
:1008E00026022F938F7199279F938F9380E092E038
:1008F0009F938F938E010F5F1F4F1F930F93F6D01F
:1009000060E080E077DFC80163DF0FB6F894DEBFF8
:100910000FBECDBF83E04AD080912B028F93809190
:100920002A028F93809123028F93809122028F93CA
:1009300080912F028F9380912E028F9381E192E01C
:100940009F938F938E010F5F1F4F1F930F93CED0F6
:1009500060E081E04FDFC8013BDF0FB6F894DEBFF7
:100960000FBECDBF6ACF85FF02C081E0089580E051
:100970000895CF93C82F80ED95D08C2F51D081ED65
:100980006DD058D090E0909325028093240252D0ED
:1009900090E0909327028093260256D090E09093A7
:1009A00029028093280238D0CF910895CF93C82F81
:1009B00080ED78D08C2F34D081ED50D03BD090E0BA
:1009C00090932D0280932C0235D090E090932F02CB
:1009D00080932E022FD090E09093230280932202E6
:1009E00033D090E090932B0280932A0215D0CF91C0
:1009F000089582E08093B8001092B9008093BA0005
:100A000084E08093BC00089584EA8093BC008091C8
:100A1000BC008823E4F7089584E98093BC0008951E
:100A20008093BB0084E88093BC008091BC00882345
:100A3000E4F7089584EC8093BC008091BC00882387
:100A4000E4F78091BB00089584E88093BC00809116
:100A5000BC008823E4F78091BB00089594EA90934A
:100A6000BC009091BC009923E4F79091B900987F65
:100A7000903191F48093BB0084E88093BC00809116
:100A8000BC008823E4F78091B900887F803431F07E
:100A9000803231F482E0089580E0089581E0089585
:100AA00083E0089594EA9093BC009091BC00992350
:100AB000E4F79091B900987F983091F48093BB004F
:100AC00084E88093BC008091BC008823E4F7809187
:100AD000B900887F883131F0803231F482E00895A6
:100AE00080E0089581E0089583E008950F931F93B7
:100AF000CF93DF93CDB7DEB72E970FB6F894DEBF56
:100B00000FBECDBF0E891F8986E08C831A830983AF
:100B10008FEF9FE79E838D83AE01465E5F4F688DAA
:100B2000798DCE01019610D0EF81F885E00FF11F8D
:100B300010822E960FB6F894DEBF0FBECDBFDF91A8
:100B4000CF911F910F9108952F923F924F925F92F4
:100B50006F927F928F929F92AF92BF92CF92DF92CD
:100B6000EF92FF920F931F93CF93DF93CDB7DEB732
:100B70002B970FB6F894DEBF0FBECDBF6C017B0183
:100B80008A01FC0117821682838181FFBFC1CE01D9
:100B900001963C01F6019381F70193FD859193FF46
:100BA00081917F01882309F4ADC1853239F493FD29
:100BB000859193FF81917F01853221F4B60190E008
:100BC000D6D1E8CF912C212C312CFFE1F315D8F0B0
:100BD0008B3279F038F4803279F08332A1F4232D0E
:100BE00020611DC08D3261F0803369F4232D2160B6
:100BF00016C0832D8260382EE32DE4603E2E2AC07D
:100C0000F32DF8601DC037FC2DC020ED280F2A30D1
:100C100040F08E32B9F436FC75C1232D2064322E9B
:100C200019C036FE06C08AE0989E200D1124922E2F
:100C300011C0EAE02E9E200D1124222EF32DF06229
:100C40003F2E08C08C3621F4832D8068382E02C0D8
:100C5000883641F4F70193FD859193FF81917F01DF
:100C60008111B3CF982F9F7D9554933028F40C5F5A
:100C70001F4F9FE399830DC0833631F0833771F0A6
:100C8000833509F055C020C0F801808189830E5F4B
:100C90001F4F88248394912C530112C02801F2E045
:100CA0004F0E511CF801A080B18036FE03C0692DA3
:100CB00070E002C06FEF7FEFC5014ED14C018201A1
:100CC000F32DFF773F2E15C0280122E0420E511C64
:100CD000F801A080B18036FE03C0692D70E002C02B
:100CE0006FEF7FEFC5012DD14C01F32DF0683F2E42
:100CF000820133FC19C0822D90E088169906A0F479
:100D0000B60180E290E033D12A94F5CFF50137FCAB
:100D1000859137FE81915F01B60190E028D12110C5
:100D20002A9421E0821A91088114910479F7E1C094
:100D3000843611F0893639F5F80137FE07C0608135
:100D40007181828193810C5F1F4F08C06081718126
:100D5000072E000C880B990B0E5F1F4FF32DFF76AB
:100D60003F2E97FF09C090958095709561957F4FB4
:100D70008F4F9F4FF0683F2E2AE030E0A30133D120
:100D8000882E861844C0853731F4232D2F7EB22E4D
:100D90002AE030E025C0932D997FB92E8F36C1F01F
:100DA00018F4883579F0AEC0803719F0883721F013
:100DB000A9C0E92FE061BE2EB4FE0DC0FB2DF4608A
:100DC000BF2E09C034FE0AC0292F2660B22E06C0ED
:100DD00028E030E005C020E130E002C020E132E050
:100DE000F801B7FE07C060817181828193810C5F39
:100DF0001F4F06C06081718180E090E00E5F1F4F41
:100E0000A301F1D0882E8618FB2DFF773F2E36FEEA
:100E10000DC0232D2E7FA22E891458F434FE0BC052
:100E200032FC09C0832D8E7EA82E05C0B82CA32CC1
:100E300003C0B82C01C0B92CA4FE0FC0FE01E80D00
:100E4000F11D8081803321F49A2D997EA92E09C04D
:100E5000A2FE06C0B394B39404C08A2D867809F02C
:100E6000B394A3FC10C0A0FE06C0B21480F4280CFA
:100E7000922C9B180DC0B21458F4B60180E290E099
:100E800076D0B394F8CFB21418F42B1802C0982C73
:100E9000212CA4FE0FC0B60180E390E068D0A2FE32
:100EA00016C0A1FC03C088E790E002C088E590E08E
:100EB000B6010CC08A2D867851F0A1FE02C08BE2EB
:100EC00001C080E2A7FC8DE2B60190E050D0891409
:100ED00030F4B60180E390E04AD09A94F8CF8A9437
:100EE000F301E80DF11D8081B60190E040D0811042
:100EF000F6CF222009F44ECEB60180E290E037D042
:100F00002A94F7CFF6018681978102C08FEF9FEF79
:100F10002B960FB6F894DEBF0FBECDBFDF91CF91F9
:100F20001F910F91FF90EF90DF90CF90BF90AF9007
:100F30009F908F907F906F905F904F903F902F90F9
:100F40000895FC010590615070400110D8F780951C
:100F500090958E0F9F1F0895FC0161507040019085
:100F60000110D8F7809590958E0F9F1F08950F93CD
:100F70001F93CF93DF93FB01238121FD03C08FEFEC
:100F80009FEF2CC022FF16C04681578124813581F6
:100F90004217530744F4A081B1819D012F5F3F4F59
:100FA000318320838C93268137812F5F3F4F378396
:100FB000268314C08B01EC01FB010084F185E02D38
:100FC0001995892BE1F6D80116968D919C9117976A
:100FD000019617969C938E931697CE01DF91CF9131
:100FE0001F910F910895FA01AA27283051F120315D
:100FF00081F1E8946F936E7F6E5F7F4F8F4F9F4FAD
:10100000AF4FB1E03ED0B4E03CD0670F781F891FEE
:101010009A1FA11D680F791F8A1F911DA11D6A0FBC
:10102000711D811D911DA11D20D009F468943F916F
:101030002AE0269F11243019305D3193DEF6CF016E
:101040000895462F4770405D4193B3E00FD0C9F734
:10105000F6CF462F4F70405D4A3318F0495D31FDA1
:101060004052419302D0A9F7EACFB4E0A6959795F4
:10107000879577956795BA95C9F7009761057105CA
:1010800008959B01AC010A2E069457954795379514
:101090002795BA95C9F7620F731F841F951FA01D6E
:0610A0000895F894FFCF53
:1010A600253032783A253032783A25303278202089
:1010B60000253032782F253032782F2530327820AF
:0210C600000028
:00000001FF
